{
  "_format": "hh-sol-artifact-1",
  "contractName": "BoostStakeNFTs",
  "sourceName": "contracts/Collection.sol",
  "abi": [
    {
      "inputs": [],
      "stateMutability": "nonpayable",
      "type": "constructor"
    },
    {
      "anonymous": false,
      "inputs": [
        {
          "indexed": true,
          "internalType": "address",
          "name": "account",
          "type": "address"
        },
        {
          "indexed": true,
          "internalType": "address",
          "name": "operator",
          "type": "address"
        },
        {
          "indexed": false,
          "internalType": "bool",
          "name": "approved",
          "type": "bool"
        }
      ],
      "name": "ApprovalForAll",
      "type": "event"
    },
    {
      "anonymous": false,
      "inputs": [
        {
          "indexed": true,
          "internalType": "address",
          "name": "previousOwner",
          "type": "address"
        },
        {
          "indexed": true,
          "internalType": "address",
          "name": "newOwner",
          "type": "address"
        }
      ],
      "name": "OwnershipTransferred",
      "type": "event"
    },
    {
      "anonymous": false,
      "inputs": [
        {
          "indexed": true,
          "internalType": "address",
          "name": "operator",
          "type": "address"
        },
        {
          "indexed": true,
          "internalType": "address",
          "name": "from",
          "type": "address"
        },
        {
          "indexed": true,
          "internalType": "address",
          "name": "to",
          "type": "address"
        },
        {
          "indexed": false,
          "internalType": "uint256[]",
          "name": "ids",
          "type": "uint256[]"
        },
        {
          "indexed": false,
          "internalType": "uint256[]",
          "name": "values",
          "type": "uint256[]"
        }
      ],
      "name": "TransferBatch",
      "type": "event"
    },
    {
      "anonymous": false,
      "inputs": [
        {
          "indexed": true,
          "internalType": "address",
          "name": "operator",
          "type": "address"
        },
        {
          "indexed": true,
          "internalType": "address",
          "name": "from",
          "type": "address"
        },
        {
          "indexed": true,
          "internalType": "address",
          "name": "to",
          "type": "address"
        },
        {
          "indexed": false,
          "internalType": "uint256",
          "name": "id",
          "type": "uint256"
        },
        {
          "indexed": false,
          "internalType": "uint256",
          "name": "value",
          "type": "uint256"
        }
      ],
      "name": "TransferSingle",
      "type": "event"
    },
    {
      "anonymous": false,
      "inputs": [
        {
          "indexed": false,
          "internalType": "string",
          "name": "value",
          "type": "string"
        },
        {
          "indexed": true,
          "internalType": "uint256",
          "name": "id",
          "type": "uint256"
        }
      ],
      "name": "URI",
      "type": "event"
    },
    {
      "inputs": [],
      "name": "BRONZE",
      "outputs": [
        {
          "internalType": "uint256",
          "name": "",
          "type": "uint256"
        }
      ],
      "stateMutability": "view",
      "type": "function"
    },
    {
      "inputs": [],
      "name": "GOLD",
      "outputs": [
        {
          "internalType": "uint256",
          "name": "",
          "type": "uint256"
        }
      ],
      "stateMutability": "view",
      "type": "function"
    },
    {
      "inputs": [],
      "name": "PLATINIUM",
      "outputs": [
        {
          "internalType": "uint256",
          "name": "",
          "type": "uint256"
        }
      ],
      "stateMutability": "view",
      "type": "function"
    },
    {
      "inputs": [],
      "name": "SILVER",
      "outputs": [
        {
          "internalType": "uint256",
          "name": "",
          "type": "uint256"
        }
      ],
      "stateMutability": "view",
      "type": "function"
    },
    {
      "inputs": [
        {
          "internalType": "address",
          "name": "account",
          "type": "address"
        },
        {
          "internalType": "uint256",
          "name": "id",
          "type": "uint256"
        }
      ],
      "name": "balanceOf",
      "outputs": [
        {
          "internalType": "uint256",
          "name": "",
          "type": "uint256"
        }
      ],
      "stateMutability": "view",
      "type": "function"
    },
    {
      "inputs": [
        {
          "internalType": "address[]",
          "name": "accounts",
          "type": "address[]"
        },
        {
          "internalType": "uint256[]",
          "name": "ids",
          "type": "uint256[]"
        }
      ],
      "name": "balanceOfBatch",
      "outputs": [
        {
          "internalType": "uint256[]",
          "name": "",
          "type": "uint256[]"
        }
      ],
      "stateMutability": "view",
      "type": "function"
    },
    {
      "inputs": [
        {
          "internalType": "address",
          "name": "account",
          "type": "address"
        },
        {
          "internalType": "address",
          "name": "operator",
          "type": "address"
        }
      ],
      "name": "isApprovedForAll",
      "outputs": [
        {
          "internalType": "bool",
          "name": "",
          "type": "bool"
        }
      ],
      "stateMutability": "view",
      "type": "function"
    },
    {
      "inputs": [],
      "name": "owner",
      "outputs": [
        {
          "internalType": "address",
          "name": "",
          "type": "address"
        }
      ],
      "stateMutability": "view",
      "type": "function"
    },
    {
      "inputs": [],
      "name": "renounceOwnership",
      "outputs": [],
      "stateMutability": "nonpayable",
      "type": "function"
    },
    {
      "inputs": [
        {
          "internalType": "address",
          "name": "from",
          "type": "address"
        },
        {
          "internalType": "address",
          "name": "to",
          "type": "address"
        },
        {
          "internalType": "uint256[]",
          "name": "ids",
          "type": "uint256[]"
        },
        {
          "internalType": "uint256[]",
          "name": "amounts",
          "type": "uint256[]"
        },
        {
          "internalType": "bytes",
          "name": "data",
          "type": "bytes"
        }
      ],
      "name": "safeBatchTransferFrom",
      "outputs": [],
      "stateMutability": "nonpayable",
      "type": "function"
    },
    {
      "inputs": [
        {
          "internalType": "address",
          "name": "from",
          "type": "address"
        },
        {
          "internalType": "address",
          "name": "to",
          "type": "address"
        },
        {
          "internalType": "uint256",
          "name": "id",
          "type": "uint256"
        },
        {
          "internalType": "uint256",
          "name": "amount",
          "type": "uint256"
        },
        {
          "internalType": "bytes",
          "name": "data",
          "type": "bytes"
        }
      ],
      "name": "safeTransferFrom",
      "outputs": [],
      "stateMutability": "nonpayable",
      "type": "function"
    },
    {
      "inputs": [
        {
          "internalType": "address",
          "name": "operator",
          "type": "address"
        },
        {
          "internalType": "bool",
          "name": "approved",
          "type": "bool"
        }
      ],
      "name": "setApprovalForAll",
      "outputs": [],
      "stateMutability": "nonpayable",
      "type": "function"
    },
    {
      "inputs": [
        {
          "internalType": "bytes4",
          "name": "interfaceId",
          "type": "bytes4"
        }
      ],
      "name": "supportsInterface",
      "outputs": [
        {
          "internalType": "bool",
          "name": "",
          "type": "bool"
        }
      ],
      "stateMutability": "view",
      "type": "function"
    },
    {
      "inputs": [
        {
          "internalType": "address",
          "name": "newOwner",
          "type": "address"
        }
      ],
      "name": "transferOwnership",
      "outputs": [],
      "stateMutability": "nonpayable",
      "type": "function"
    },
    {
      "inputs": [
        {
          "internalType": "uint256",
          "name": "tokenId",
          "type": "uint256"
        }
      ],
      "name": "uri",
      "outputs": [
        {
          "internalType": "string",
          "name": "",
          "type": "string"
        }
      ],
      "stateMutability": "pure",
      "type": "function"
    }
  ],
  "bytecode": "0x60806040523480156200001157600080fd5b506040518060800160405280605c815260200162003ee5605c91396200003d81620000f860201b60201c565b506200005e620000526200010d60201b60201c565b6200011560201b60201c565b62000083336000606460405180602001604052806000815250620001db60201b60201c565b620000a8336001606460405180602001604052806000815250620001db60201b60201c565b620000cd336002606460405180602001604052806000815250620001db60201b60201c565b620000f2336003606460405180602001604052806000815250620001db60201b60201c565b62000fc4565b8060029081620001099190620008e4565b5050565b600033905090565b6000600360009054906101000a900473ffffffffffffffffffffffffffffffffffffffff16905081600360006101000a81548173ffffffffffffffffffffffffffffffffffffffff021916908373ffffffffffffffffffffffffffffffffffffffff1602179055508173ffffffffffffffffffffffffffffffffffffffff168173ffffffffffffffffffffffffffffffffffffffff167f8be0079c531659141344cd1fd0a4f28419497f9722a3daafe3b4186f6b6457e060405160405180910390a35050565b600073ffffffffffffffffffffffffffffffffffffffff168473ffffffffffffffffffffffffffffffffffffffff16036200024d576040517f08c379a0000000000000000000000000000000000000000000000000000000008152600401620002449062000a52565b60405180910390fd5b60006200025f6200010d60201b60201c565b905060006200027485620003c260201b60201c565b905060006200028985620003c260201b60201c565b9050620002a2836000898585896200044360201b60201c565b8460008088815260200190815260200160002060008973ffffffffffffffffffffffffffffffffffffffff1673ffffffffffffffffffffffffffffffffffffffff168152602001908152602001600020600082825462000303919062000aa3565b925050819055508673ffffffffffffffffffffffffffffffffffffffff16600073ffffffffffffffffffffffffffffffffffffffff168473ffffffffffffffffffffffffffffffffffffffff167fc3d58168c5ae7397731d063d5bbf3d657854427343f4c083240f7aacaa2d0f6289896040516200038392919062000aef565b60405180910390a4620003a2836000898585896200044b60201b60201c565b620003b9836000898989896200045360201b60201c565b50505050505050565b60606000600167ffffffffffffffff811115620003e457620003e362000675565b5b604051908082528060200260200182016040528015620004135781602001602082028036833780820191505090505b50905082816000815181106200042e576200042d62000b1c565b5b60200260200101818152505080915050919050565b505050505050565b505050505050565b6200047a8473ffffffffffffffffffffffffffffffffffffffff166200064760201b60201c565b156200063f578373ffffffffffffffffffffffffffffffffffffffff1663f23a6e6187878686866040518663ffffffff1660e01b8152600401620004c395949392919062000c2a565b6020604051808303816000875af19250505080156200050257506040513d601f19601f82011682018060405250810190620004ff919062000cfa565b60015b620005b3576200051162000d39565b806308c379a0036200057457506200052862000d94565b8062000535575062000576565b806040517f08c379a00000000000000000000000000000000000000000000000000000000081526004016200056b919062000e70565b60405180910390fd5b505b6040517f08c379a0000000000000000000000000000000000000000000000000000000008152600401620005aa9062000f0a565b60405180910390fd5b63f23a6e6160e01b7bffffffffffffffffffffffffffffffffffffffffffffffffffffffff1916817bffffffffffffffffffffffffffffffffffffffffffffffffffffffff1916146200063d576040517f08c379a0000000000000000000000000000000000000000000000000000000008152600401620006349062000fa2565b60405180910390fd5b505b505050505050565b6000808273ffffffffffffffffffffffffffffffffffffffff163b119050919050565b600081519050919050565b7f4e487b7100000000000000000000000000000000000000000000000000000000600052604160045260246000fd5b7f4e487b7100000000000000000000000000000000000000000000000000000000600052602260045260246000fd5b60006002820490506001821680620006ec57607f821691505b602082108103620007025762000701620006a4565b5b50919050565b60008190508160005260206000209050919050565b60006020601f8301049050919050565b600082821b905092915050565b6000600883026200076c7fffffffffffffffffffffffffffffffffffffffffffffffffffffffffffffffff826200072d565b6200077886836200072d565b95508019841693508086168417925050509392505050565b6000819050919050565b6000819050919050565b6000620007c5620007bf620007b98462000790565b6200079a565b62000790565b9050919050565b6000819050919050565b620007e183620007a4565b620007f9620007f082620007cc565b8484546200073a565b825550505050565b600090565b6200081062000801565b6200081d818484620007d6565b505050565b5b8181101562000845576200083960008262000806565b60018101905062000823565b5050565b601f82111562000894576200085e8162000708565b62000869846200071d565b8101602085101562000879578190505b6200089162000888856200071d565b83018262000822565b50505b505050565b600082821c905092915050565b6000620008b96000198460080262000899565b1980831691505092915050565b6000620008d48383620008a6565b9150826002028217905092915050565b620008ef826200066a565b67ffffffffffffffff8111156200090b576200090a62000675565b5b620009178254620006d3565b6200092482828562000849565b600060209050601f8311600181146200095c576000841562000947578287015190505b620009538582620008c6565b865550620009c3565b601f1984166200096c8662000708565b60005b8281101562000996578489015182556001820191506020850194506020810190506200096f565b86831015620009b65784890151620009b2601f891682620008a6565b8355505b6001600288020188555050505b505050505050565b600082825260208201905092915050565b7f455243313135353a206d696e7420746f20746865207a65726f2061646472657360008201527f7300000000000000000000000000000000000000000000000000000000000000602082015250565b600062000a3a602183620009cb565b915062000a4782620009dc565b604082019050919050565b6000602082019050818103600083015262000a6d8162000a2b565b9050919050565b7f4e487b7100000000000000000000000000000000000000000000000000000000600052601160045260246000fd5b600062000ab08262000790565b915062000abd8362000790565b925082820190508082111562000ad85762000ad762000a74565b5b92915050565b62000ae98162000790565b82525050565b600060408201905062000b06600083018562000ade565b62000b15602083018462000ade565b9392505050565b7f4e487b7100000000000000000000000000000000000000000000000000000000600052603260045260246000fd5b600073ffffffffffffffffffffffffffffffffffffffff82169050919050565b600062000b788262000b4b565b9050919050565b62000b8a8162000b6b565b82525050565b600081519050919050565b600082825260208201905092915050565b60005b8381101562000bcc57808201518184015260208101905062000baf565b60008484015250505050565b6000601f19601f8301169050919050565b600062000bf68262000b90565b62000c02818562000b9b565b935062000c1481856020860162000bac565b62000c1f8162000bd8565b840191505092915050565b600060a08201905062000c41600083018862000b7f565b62000c50602083018762000b7f565b62000c5f604083018662000ade565b62000c6e606083018562000ade565b818103608083015262000c82818462000be9565b90509695505050505050565b6000604051905090565b600080fd5b60007fffffffff0000000000000000000000000000000000000000000000000000000082169050919050565b62000cd48162000c9d565b811462000ce057600080fd5b50565b60008151905062000cf48162000cc9565b92915050565b60006020828403121562000d135762000d1262000c98565b5b600062000d238482850162000ce3565b91505092915050565b60008160e01c9050919050565b600060033d111562000d5b5760046000803e62000d5860005162000d2c565b90505b90565b62000d698262000bd8565b810181811067ffffffffffffffff8211171562000d8b5762000d8a62000675565b5b80604052505050565b600060443d1062000e2c5762000da962000c8e565b60043d036004823e80513d602482011167ffffffffffffffff8211171562000dd357505062000e2c565b808201805167ffffffffffffffff81111562000df3575050505062000e2c565b80602083010160043d03850181111562000e1257505050505062000e2c565b62000e238260200185018662000d5e565b82955050505050505b90565b600062000e3c826200066a565b62000e488185620009cb565b935062000e5a81856020860162000bac565b62000e658162000bd8565b840191505092915050565b6000602082019050818103600083015262000e8c818462000e2f565b905092915050565b7f455243313135353a207472616e7366657220746f206e6f6e2d4552433131353560008201527f526563656976657220696d706c656d656e746572000000000000000000000000602082015250565b600062000ef2603483620009cb565b915062000eff8262000e94565b604082019050919050565b6000602082019050818103600083015262000f258162000ee3565b9050919050565b7f455243313135353a204552433131353552656365697665722072656a6563746560008201527f6420746f6b656e73000000000000000000000000000000000000000000000000602082015250565b600062000f8a602883620009cb565b915062000f978262000f2c565b604082019050919050565b6000602082019050818103600083015262000fbd8162000f7b565b9050919050565b612f118062000fd46000396000f3fe608060405234801561001057600080fd5b50600436106100f45760003560e01c80637edd9d4e11610097578063e3e55f0811610066578063e3e55f0814610273578063e985e9c514610291578063f242432a146102c1578063f2fde38b146102dd576100f4565b80637edd9d4e146101fd5780638da5cb5b1461021b578063a22cb46514610239578063e00fd54314610255576100f4565b80632eb2c2d6116100d35780632eb2c2d6146101895780633e4bee38146101a55780634e1273f4146101c3578063715018a6146101f3576100f4565b8062fdd58e146100f957806301ffc9a7146101295780630e89341c14610159575b600080fd5b610113600480360381019061010e9190611a44565b6102f9565b6040516101209190611a93565b60405180910390f35b610143600480360381019061013e9190611b06565b6103c1565b6040516101509190611b4e565b60405180910390f35b610173600480360381019061016e9190611b69565b6104a3565b6040516101809190611c26565b60405180910390f35b6101a3600480360381019061019e9190611e45565b6104d4565b005b6101ad6105c7565b6040516101ba9190611a93565b60405180910390f35b6101dd60048036038101906101d89190611fd7565b6105cc565b6040516101ea919061210d565b60405180910390f35b6101fb6106e5565b005b6102056106f9565b6040516102129190611a93565b60405180910390f35b6102236106fe565b604051610230919061213e565b60405180910390f35b610253600480360381019061024e9190612185565b610728565b005b61025d61073e565b60405161026a9190611a93565b60405180910390f35b61027b610743565b6040516102889190611a93565b60405180910390f35b6102ab60048036038101906102a691906121c5565b610748565b6040516102b89190611b4e565b60405180910390f35b6102db60048036038101906102d69190612205565b6107dc565b005b6102f760048036038101906102f2919061229c565b61087d565b005b60008073ffffffffffffffffffffffffffffffffffffffff168373ffffffffffffffffffffffffffffffffffffffff1603610369576040517f08c379a00000000000000000000000000000000000000000000000000000000081526004016103609061233b565b60405180910390fd5b60008083815260200190815260200160002060008473ffffffffffffffffffffffffffffffffffffffff1673ffffffffffffffffffffffffffffffffffffffff16815260200190815260200160002054905092915050565b60007fd9b67a26000000000000000000000000000000000000000000000000000000007bffffffffffffffffffffffffffffffffffffffffffffffffffffffff1916827bffffffffffffffffffffffffffffffffffffffffffffffffffffffff1916148061048c57507f0e89341c000000000000000000000000000000000000000000000000000000007bffffffffffffffffffffffffffffffffffffffffffffffffffffffff1916827bffffffffffffffffffffffffffffffffffffffffffffffffffffffff1916145b8061049c575061049b82610900565b5b9050919050565b60606104ae8261096a565b6040516020016104be919061247b565b6040516020818303038152906040529050919050565b60005b83518110156105b257600460008583815181106104f7576104f66124a8565b5b6020026020010151815260200190815260200160002060009054906101000a900460ff161561055b576040517f08c379a000000000000000000000000000000000000000000000000000000000815260040161055290612549565b60405180910390fd5b600160046000868481518110610574576105736124a8565b5b6020026020010151815260200190815260200160002060006101000a81548160ff021916908315150217905550806105ab90612598565b90506104d7565b506105c08585858585610a38565b5050505050565b600281565b60608151835114610612576040517f08c379a000000000000000000000000000000000000000000000000000000000815260040161060990612652565b60405180910390fd5b6000835167ffffffffffffffff81111561062f5761062e611c4d565b5b60405190808252806020026020018201604052801561065d5781602001602082028036833780820191505090505b50905060005b84518110156106da576106aa858281518110610682576106816124a8565b5b602002602001015185838151811061069d5761069c6124a8565b5b60200260200101516102f9565b8282815181106106bd576106bc6124a8565b5b602002602001018181525050806106d390612598565b9050610663565b508091505092915050565b6106ed610ad9565b6106f76000610b57565b565b600381565b6000600360009054906101000a900473ffffffffffffffffffffffffffffffffffffffff16905090565b61073a610733610c1d565b8383610c25565b5050565b600081565b600181565b6000600160008473ffffffffffffffffffffffffffffffffffffffff1673ffffffffffffffffffffffffffffffffffffffff16815260200190815260200160002060008373ffffffffffffffffffffffffffffffffffffffff1673ffffffffffffffffffffffffffffffffffffffff16815260200190815260200160002060009054906101000a900460ff16905092915050565b6004600084815260200190815260200160002060009054906101000a900460ff161561083d576040517f08c379a0000000000000000000000000000000000000000000000000000000008152600401610834906126e4565b60405180910390fd5b60016004600085815260200190815260200160002060006101000a81548160ff0219169083151502179055506108768585858585610d91565b5050505050565b610885610ad9565b600073ffffffffffffffffffffffffffffffffffffffff168173ffffffffffffffffffffffffffffffffffffffff16036108f4576040517f08c379a00000000000000000000000000000000000000000000000000000000081526004016108eb90612776565b60405180910390fd5b6108fd81610b57565b50565b60007f01ffc9a7000000000000000000000000000000000000000000000000000000007bffffffffffffffffffffffffffffffffffffffffffffffffffffffff1916827bffffffffffffffffffffffffffffffffffffffffffffffffffffffff1916149050919050565b60606000600161097984610e32565b01905060008167ffffffffffffffff81111561099857610997611c4d565b5b6040519080825280601f01601f1916602001820160405280156109ca5781602001600182028036833780820191505090505b509050600082602001820190505b600115610a2d578080600190039150507f3031323334353637383961626364656600000000000000000000000000000000600a86061a8153600a8581610a2157610a20612796565b5b049450600085036109d8575b819350505050919050565b610a40610c1d565b73ffffffffffffffffffffffffffffffffffffffff168573ffffffffffffffffffffffffffffffffffffffff161480610a865750610a8585610a80610c1d565b610748565b5b610ac5576040517f08c379a0000000000000000000000000000000000000000000000000000000008152600401610abc90612837565b60405180910390fd5b610ad28585858585610f85565b5050505050565b610ae1610c1d565b73ffffffffffffffffffffffffffffffffffffffff16610aff6106fe565b73ffffffffffffffffffffffffffffffffffffffff1614610b55576040517f08c379a0000000000000000000000000000000000000000000000000000000008152600401610b4c906128a3565b60405180910390fd5b565b6000600360009054906101000a900473ffffffffffffffffffffffffffffffffffffffff16905081600360006101000a81548173ffffffffffffffffffffffffffffffffffffffff021916908373ffffffffffffffffffffffffffffffffffffffff1602179055508173ffffffffffffffffffffffffffffffffffffffff168173ffffffffffffffffffffffffffffffffffffffff167f8be0079c531659141344cd1fd0a4f28419497f9722a3daafe3b4186f6b6457e060405160405180910390a35050565b600033905090565b8173ffffffffffffffffffffffffffffffffffffffff168373ffffffffffffffffffffffffffffffffffffffff1603610c93576040517f08c379a0000000000000000000000000000000000000000000000000000000008152600401610c8a90612935565b60405180910390fd5b80600160008573ffffffffffffffffffffffffffffffffffffffff1673ffffffffffffffffffffffffffffffffffffffff16815260200190815260200160002060008473ffffffffffffffffffffffffffffffffffffffff1673ffffffffffffffffffffffffffffffffffffffff16815260200190815260200160002060006101000a81548160ff0219169083151502179055508173ffffffffffffffffffffffffffffffffffffffff168373ffffffffffffffffffffffffffffffffffffffff167f17307eab39ab6107e8899845ad3d59bd9653f200f220920489ca2b5937696c3183604051610d849190611b4e565b60405180910390a3505050565b610d99610c1d565b73ffffffffffffffffffffffffffffffffffffffff168573ffffffffffffffffffffffffffffffffffffffff161480610ddf5750610dde85610dd9610c1d565b610748565b5b610e1e576040517f08c379a0000000000000000000000000000000000000000000000000000000008152600401610e1590612837565b60405180910390fd5b610e2b85858585856112a6565b5050505050565b600080600090507a184f03e93ff9f4daa797ed6e38ed64bf6a1f0100000000000000008310610e90577a184f03e93ff9f4daa797ed6e38ed64bf6a1f0100000000000000008381610e8657610e85612796565b5b0492506040810190505b6d04ee2d6d415b85acef81000000008310610ecd576d04ee2d6d415b85acef81000000008381610ec357610ec2612796565b5b0492506020810190505b662386f26fc100008310610efc57662386f26fc100008381610ef257610ef1612796565b5b0492506010810190505b6305f5e1008310610f25576305f5e1008381610f1b57610f1a612796565b5b0492506008810190505b6127108310610f4a576127108381610f4057610f3f612796565b5b0492506004810190505b60648310610f6d5760648381610f6357610f62612796565b5b0492506002810190505b600a8310610f7c576001810190505b80915050919050565b8151835114610fc9576040517f08c379a0000000000000000000000000000000000000000000000000000000008152600401610fc0906129c7565b60405180910390fd5b600073ffffffffffffffffffffffffffffffffffffffff168473ffffffffffffffffffffffffffffffffffffffff1603611038576040517f08c379a000000000000000000000000000000000000000000000000000000000815260040161102f90612a59565b60405180910390fd5b6000611042610c1d565b9050611052818787878787611541565b60005b8451811015611203576000858281518110611073576110726124a8565b5b602002602001015190506000858381518110611092576110916124a8565b5b60200260200101519050600080600084815260200190815260200160002060008b73ffffffffffffffffffffffffffffffffffffffff1673ffffffffffffffffffffffffffffffffffffffff16815260200190815260200160002054905081811015611133576040517f08c379a000000000000000000000000000000000000000000000000000000000815260040161112a90612aeb565b60405180910390fd5b81810360008085815260200190815260200160002060008c73ffffffffffffffffffffffffffffffffffffffff1673ffffffffffffffffffffffffffffffffffffffff168152602001908152602001600020819055508160008085815260200190815260200160002060008b73ffffffffffffffffffffffffffffffffffffffff1673ffffffffffffffffffffffffffffffffffffffff16815260200190815260200160002060008282546111e89190612b0b565b92505081905550505050806111fc90612598565b9050611055565b508473ffffffffffffffffffffffffffffffffffffffff168673ffffffffffffffffffffffffffffffffffffffff168273ffffffffffffffffffffffffffffffffffffffff167f4a39dc06d4c0dbc64b70af90fd698a233a518aa5d07e595d983b8c0526c8f7fb878760405161127a929190612b3f565b60405180910390a4611290818787878787611549565b61129e818787878787611551565b505050505050565b600073ffffffffffffffffffffffffffffffffffffffff168473ffffffffffffffffffffffffffffffffffffffff1603611315576040517f08c379a000000000000000000000000000000000000000000000000000000000815260040161130c90612a59565b60405180910390fd5b600061131f610c1d565b9050600061132c85611728565b9050600061133985611728565b9050611349838989858589611541565b600080600088815260200190815260200160002060008a73ffffffffffffffffffffffffffffffffffffffff1673ffffffffffffffffffffffffffffffffffffffff168152602001908152602001600020549050858110156113e0576040517f08c379a00000000000000000000000000000000000000000000000000000000081526004016113d790612aeb565b60405180910390fd5b85810360008089815260200190815260200160002060008b73ffffffffffffffffffffffffffffffffffffffff1673ffffffffffffffffffffffffffffffffffffffff168152602001908152602001600020819055508560008089815260200190815260200160002060008a73ffffffffffffffffffffffffffffffffffffffff1673ffffffffffffffffffffffffffffffffffffffff16815260200190815260200160002060008282546114959190612b0b565b925050819055508773ffffffffffffffffffffffffffffffffffffffff168973ffffffffffffffffffffffffffffffffffffffff168573ffffffffffffffffffffffffffffffffffffffff167fc3d58168c5ae7397731d063d5bbf3d657854427343f4c083240f7aacaa2d0f628a8a604051611512929190612b76565b60405180910390a4611528848a8a86868a611549565b611536848a8a8a8a8a6117a2565b505050505050505050565b505050505050565b505050505050565b6115708473ffffffffffffffffffffffffffffffffffffffff16611979565b15611720578373ffffffffffffffffffffffffffffffffffffffff1663bc197c8187878686866040518663ffffffff1660e01b81526004016115b6959493929190612bf4565b6020604051808303816000875af19250505080156115f257506040513d601f19601f820116820180604052508101906115ef9190612c71565b60015b611697576115fe612cab565b806308c379a00361165a5750611612612ccd565b8061161d575061165c565b806040517f08c379a00000000000000000000000000000000000000000000000000000000081526004016116519190611c26565b60405180910390fd5b505b6040517f08c379a000000000000000000000000000000000000000000000000000000000815260040161168e90612dcf565b60405180910390fd5b63bc197c8160e01b7bffffffffffffffffffffffffffffffffffffffffffffffffffffffff1916817bffffffffffffffffffffffffffffffffffffffffffffffffffffffff19161461171e576040517f08c379a000000000000000000000000000000000000000000000000000000000815260040161171590612e61565b60405180910390fd5b505b505050505050565b60606000600167ffffffffffffffff81111561174757611746611c4d565b5b6040519080825280602002602001820160405280156117755781602001602082028036833780820191505090505b509050828160008151811061178d5761178c6124a8565b5b60200260200101818152505080915050919050565b6117c18473ffffffffffffffffffffffffffffffffffffffff16611979565b15611971578373ffffffffffffffffffffffffffffffffffffffff1663f23a6e6187878686866040518663ffffffff1660e01b8152600401611807959493929190612e81565b6020604051808303816000875af192505050801561184357506040513d601f19601f820116820180604052508101906118409190612c71565b60015b6118e85761184f612cab565b806308c379a0036118ab5750611863612ccd565b8061186e57506118ad565b806040517f08c379a00000000000000000000000000000000000000000000000000000000081526004016118a29190611c26565b60405180910390fd5b505b6040517f08c379a00000000000000000000000000000000000000000000000000000000081526004016118df90612dcf565b60405180910390fd5b63f23a6e6160e01b7bffffffffffffffffffffffffffffffffffffffffffffffffffffffff1916817bffffffffffffffffffffffffffffffffffffffffffffffffffffffff19161461196f576040517f08c379a000000000000000000000000000000000000000000000000000000000815260040161196690612e61565b60405180910390fd5b505b505050505050565b6000808273ffffffffffffffffffffffffffffffffffffffff163b119050919050565b6000604051905090565b600080fd5b600080fd5b600073ffffffffffffffffffffffffffffffffffffffff82169050919050565b60006119db826119b0565b9050919050565b6119eb816119d0565b81146119f657600080fd5b50565b600081359050611a08816119e2565b92915050565b6000819050919050565b611a2181611a0e565b8114611a2c57600080fd5b50565b600081359050611a3e81611a18565b92915050565b60008060408385031215611a5b57611a5a6119a6565b5b6000611a69858286016119f9565b9250506020611a7a85828601611a2f565b9150509250929050565b611a8d81611a0e565b82525050565b6000602082019050611aa86000830184611a84565b92915050565b60007fffffffff0000000000000000000000000000000000000000000000000000000082169050919050565b611ae381611aae565b8114611aee57600080fd5b50565b600081359050611b0081611ada565b92915050565b600060208284031215611b1c57611b1b6119a6565b5b6000611b2a84828501611af1565b91505092915050565b60008115159050919050565b611b4881611b33565b82525050565b6000602082019050611b636000830184611b3f565b92915050565b600060208284031215611b7f57611b7e6119a6565b5b6000611b8d84828501611a2f565b91505092915050565b600081519050919050565b600082825260208201905092915050565b60005b83811015611bd0578082015181840152602081019050611bb5565b60008484015250505050565b6000601f19601f8301169050919050565b6000611bf882611b96565b611c028185611ba1565b9350611c12818560208601611bb2565b611c1b81611bdc565b840191505092915050565b60006020820190508181036000830152611c408184611bed565b905092915050565b600080fd5b7f4e487b7100000000000000000000000000000000000000000000000000000000600052604160045260246000fd5b611c8582611bdc565b810181811067ffffffffffffffff82111715611ca457611ca3611c4d565b5b80604052505050565b6000611cb761199c565b9050611cc38282611c7c565b919050565b600067ffffffffffffffff821115611ce357611ce2611c4d565b5b602082029050602081019050919050565b600080fd5b6000611d0c611d0784611cc8565b611cad565b90508083825260208201905060208402830185811115611d2f57611d2e611cf4565b5b835b81811015611d585780611d448882611a2f565b845260208401935050602081019050611d31565b5050509392505050565b600082601f830112611d7757611d76611c48565b5b8135611d87848260208601611cf9565b91505092915050565b600080fd5b600067ffffffffffffffff821115611db057611daf611c4d565b5b611db982611bdc565b9050602081019050919050565b82818337600083830152505050565b6000611de8611de384611d95565b611cad565b905082815260208101848484011115611e0457611e03611d90565b5b611e0f848285611dc6565b509392505050565b600082601f830112611e2c57611e2b611c48565b5b8135611e3c848260208601611dd5565b91505092915050565b600080600080600060a08688031215611e6157611e606119a6565b5b6000611e6f888289016119f9565b9550506020611e80888289016119f9565b945050604086013567ffffffffffffffff811115611ea157611ea06119ab565b5b611ead88828901611d62565b935050606086013567ffffffffffffffff811115611ece57611ecd6119ab565b5b611eda88828901611d62565b925050608086013567ffffffffffffffff811115611efb57611efa6119ab565b5b611f0788828901611e17565b9150509295509295909350565b600067ffffffffffffffff821115611f2f57611f2e611c4d565b5b602082029050602081019050919050565b6000611f53611f4e84611f14565b611cad565b90508083825260208201905060208402830185811115611f7657611f75611cf4565b5b835b81811015611f9f5780611f8b88826119f9565b845260208401935050602081019050611f78565b5050509392505050565b600082601f830112611fbe57611fbd611c48565b5b8135611fce848260208601611f40565b91505092915050565b60008060408385031215611fee57611fed6119a6565b5b600083013567ffffffffffffffff81111561200c5761200b6119ab565b5b61201885828601611fa9565b925050602083013567ffffffffffffffff811115612039576120386119ab565b5b61204585828601611d62565b9150509250929050565b600081519050919050565b600082825260208201905092915050565b6000819050602082019050919050565b61208481611a0e565b82525050565b6000612096838361207b565b60208301905092915050565b6000602082019050919050565b60006120ba8261204f565b6120c4818561205a565b93506120cf8361206b565b8060005b838110156121005781516120e7888261208a565b97506120f2836120a2565b9250506001810190506120d3565b5085935050505092915050565b6000602082019050818103600083015261212781846120af565b905092915050565b612138816119d0565b82525050565b6000602082019050612153600083018461212f565b92915050565b61216281611b33565b811461216d57600080fd5b50565b60008135905061217f81612159565b92915050565b6000806040838503121561219c5761219b6119a6565b5b60006121aa858286016119f9565b92505060206121bb85828601612170565b9150509250929050565b600080604083850312156121dc576121db6119a6565b5b60006121ea858286016119f9565b92505060206121fb858286016119f9565b9150509250929050565b600080600080600060a08688031215612221576122206119a6565b5b600061222f888289016119f9565b9550506020612240888289016119f9565b945050604061225188828901611a2f565b935050606061226288828901611a2f565b925050608086013567ffffffffffffffff811115612283576122826119ab565b5b61228f88828901611e17565b9150509295509295909350565b6000602082840312156122b2576122b16119a6565b5b60006122c0848285016119f9565b91505092915050565b7f455243313135353a2061646472657373207a65726f206973206e6f742061207660008201527f616c6964206f776e657200000000000000000000000000000000000000000000602082015250565b6000612325602a83611ba1565b9150612330826122c9565b604082019050919050565b6000602082019050818103600083015261235481612318565b9050919050565b600081905092915050565b7f68747470733a2f2f626166796265696132786c646179716e6c796e367634616960008201527f326d6e7765366667776571617578727437617a35657a7673657071726b78753760208201527f6b6f692e697066732e647765622e6c696e6b2f00000000000000000000000000604082015250565b60006123e860538361235b565b91506123f382612366565b605382019050919050565b600061240982611b96565b612413818561235b565b9350612423818560208601611bb2565b80840191505092915050565b7f2e6a736f6e000000000000000000000000000000000000000000000000000000600082015250565b600061246560058361235b565b91506124708261242f565b600582019050919050565b6000612486826123db565b915061249282846123fe565b915061249d82612458565b915081905092915050565b7f4e487b7100000000000000000000000000000000000000000000000000000000600052603260045260246000fd5b7f455243313135353a206f6e65206f662074686520746f6b656e7320686173206160008201527f6c7265616479206265656e207472616e73666572726564000000000000000000602082015250565b6000612533603783611ba1565b915061253e826124d7565b604082019050919050565b6000602082019050818103600083015261256281612526565b9050919050565b7f4e487b7100000000000000000000000000000000000000000000000000000000600052601160045260246000fd5b60006125a382611a0e565b91507fffffffffffffffffffffffffffffffffffffffffffffffffffffffffffffffff82036125d5576125d4612569565b5b600182019050919050565b7f455243313135353a206163636f756e747320616e6420696473206c656e67746860008201527f206d69736d617463680000000000000000000000000000000000000000000000602082015250565b600061263c602983611ba1565b9150612647826125e0565b604082019050919050565b6000602082019050818103600083015261266b8161262f565b9050919050565b7f455243313135353a20746f6b656e2068617320616c7265616479206265656e2060008201527f7472616e73666572726564000000000000000000000000000000000000000000602082015250565b60006126ce602b83611ba1565b91506126d982612672565b604082019050919050565b600060208201905081810360008301526126fd816126c1565b9050919050565b7f4f776e61626c653a206e6577206f776e657220697320746865207a65726f206160008201527f6464726573730000000000000000000000000000000000000000000000000000602082015250565b6000612760602683611ba1565b915061276b82612704565b604082019050919050565b6000602082019050818103600083015261278f81612753565b9050919050565b7f4e487b7100000000000000000000000000000000000000000000000000000000600052601260045260246000fd5b7f455243313135353a2063616c6c6572206973206e6f7420746f6b656e206f776e60008201527f6572206f7220617070726f766564000000000000000000000000000000000000602082015250565b6000612821602e83611ba1565b915061282c826127c5565b604082019050919050565b6000602082019050818103600083015261285081612814565b9050919050565b7f4f776e61626c653a2063616c6c6572206973206e6f7420746865206f776e6572600082015250565b600061288d602083611ba1565b915061289882612857565b602082019050919050565b600060208201905081810360008301526128bc81612880565b9050919050565b7f455243313135353a2073657474696e6720617070726f76616c2073746174757360008201527f20666f722073656c660000000000000000000000000000000000000000000000602082015250565b600061291f602983611ba1565b915061292a826128c3565b604082019050919050565b6000602082019050818103600083015261294e81612912565b9050919050565b7f455243313135353a2069647320616e6420616d6f756e7473206c656e6774682060008201527f6d69736d61746368000000000000000000000000000000000000000000000000602082015250565b60006129b1602883611ba1565b91506129bc82612955565b604082019050919050565b600060208201905081810360008301526129e0816129a4565b9050919050565b7f455243313135353a207472616e7366657220746f20746865207a65726f20616460008201527f6472657373000000000000000000000000000000000000000000000000000000602082015250565b6000612a43602583611ba1565b9150612a4e826129e7565b604082019050919050565b60006020820190508181036000830152612a7281612a36565b9050919050565b7f455243313135353a20696e73756666696369656e742062616c616e636520666f60008201527f72207472616e7366657200000000000000000000000000000000000000000000602082015250565b6000612ad5602a83611ba1565b9150612ae082612a79565b604082019050919050565b60006020820190508181036000830152612b0481612ac8565b9050919050565b6000612b1682611a0e565b9150612b2183611a0e565b9250828201905080821115612b3957612b38612569565b5b92915050565b60006040820190508181036000830152612b5981856120af565b90508181036020830152612b6d81846120af565b90509392505050565b6000604082019050612b8b6000830185611a84565b612b986020830184611a84565b9392505050565b600081519050919050565b600082825260208201905092915050565b6000612bc682612b9f565b612bd08185612baa565b9350612be0818560208601611bb2565b612be981611bdc565b840191505092915050565b600060a082019050612c09600083018861212f565b612c16602083018761212f565b8181036040830152612c2881866120af565b90508181036060830152612c3c81856120af565b90508181036080830152612c508184612bbb565b90509695505050505050565b600081519050612c6b81611ada565b92915050565b600060208284031215612c8757612c866119a6565b5b6000612c9584828501612c5c565b91505092915050565b60008160e01c9050919050565b600060033d1115612cca5760046000803e612cc7600051612c9e565b90505b90565b600060443d10612d5a57612cdf61199c565b60043d036004823e80513d602482011167ffffffffffffffff82111715612d07575050612d5a565b808201805167ffffffffffffffff811115612d255750505050612d5a565b80602083010160043d038501811115612d42575050505050612d5a565b612d5182602001850186611c7c565b82955050505050505b90565b7f455243313135353a207472616e7366657220746f206e6f6e2d4552433131353560008201527f526563656976657220696d706c656d656e746572000000000000000000000000602082015250565b6000612db9603483611ba1565b9150612dc482612d5d565b604082019050919050565b60006020820190508181036000830152612de881612dac565b9050919050565b7f455243313135353a204552433131353552656365697665722072656a6563746560008201527f6420746f6b656e73000000000000000000000000000000000000000000000000602082015250565b6000612e4b602883611ba1565b9150612e5682612def565b604082019050919050565b60006020820190508181036000830152612e7a81612e3e565b9050919050565b600060a082019050612e96600083018861212f565b612ea3602083018761212f565b612eb06040830186611a84565b612ebd6060830185611a84565b8181036080830152612ecf8184612bbb565b9050969550505050505056fea26469706673582212206e44d3431d5e340baa176b361eac8339ccf64d77e37c0878c3d74a9474818c1764736f6c6343000813003368747470733a2f2f626166796265696132786c646179716e6c796e3676346169326d6e7765366667776571617578727437617a35657a7673657071726b7875376b6f692e697066732e647765622e6c696e6b2f7b69647d2e6a736f6e",
  "linkReferences": {},
  "deployedLinkReferences": {}
}