{
    "_format": "hh-sol-artifact-1",
    "contractName": "BoostStakeToken",
    "sourceName": "contracts/Token.sol",
    "abi": [
        {
            "inputs": [],
            "stateMutability": "nonpayable",
            "type": "constructor"
        },
        {
            "inputs": [],
            "name": "InvalidShortString",
            "type": "error"
        },
        {
            "inputs": [
                {
                    "internalType": "string",
                    "name": "str",
                    "type": "string"
                }
            ],
            "name": "StringTooLong",
            "type": "error"
        },
        {
            "anonymous": false,
            "inputs": [
                {
                    "indexed": true,
                    "internalType": "address",
                    "name": "owner",
                    "type": "address"
                },
                {
                    "indexed": true,
                    "internalType": "address",
                    "name": "spender",
                    "type": "address"
                },
                {
                    "indexed": false,
                    "internalType": "uint256",
                    "name": "value",
                    "type": "uint256"
                }
            ],
            "name": "Approval",
            "type": "event"
        },
        {
            "anonymous": false,
            "inputs": [],
            "name": "EIP712DomainChanged",
            "type": "event"
        },
        {
            "anonymous": false,
            "inputs": [
                {
                    "indexed": true,
                    "internalType": "address",
                    "name": "previousOwner",
                    "type": "address"
                },
                {
                    "indexed": true,
                    "internalType": "address",
                    "name": "newOwner",
                    "type": "address"
                }
            ],
            "name": "OwnershipTransferred",
            "type": "event"
        },
        {
            "anonymous": false,
            "inputs": [
                {
                    "indexed": true,
                    "internalType": "address",
                    "name": "from",
                    "type": "address"
                },
                {
                    "indexed": true,
                    "internalType": "address",
                    "name": "to",
                    "type": "address"
                },
                {
                    "indexed": false,
                    "internalType": "uint256",
                    "name": "value",
                    "type": "uint256"
                }
            ],
            "name": "Transfer",
            "type": "event"
        },
        {
            "inputs": [],
            "name": "DOMAIN_SEPARATOR",
            "outputs": [
                {
                    "internalType": "bytes32",
                    "name": "",
                    "type": "bytes32"
                }
            ],
            "stateMutability": "view",
            "type": "function"
        },
        {
            "inputs": [
                {
                    "internalType": "address",
                    "name": "_address",
                    "type": "address"
                }
            ],
            "name": "addToWhitelist",
            "outputs": [],
            "stateMutability": "nonpayable",
            "type": "function"
        },
        {
            "inputs": [
                {
                    "internalType": "address",
                    "name": "owner",
                    "type": "address"
                },
                {
                    "internalType": "address",
                    "name": "spender",
                    "type": "address"
                }
            ],
            "name": "allowance",
            "outputs": [
                {
                    "internalType": "uint256",
                    "name": "",
                    "type": "uint256"
                }
            ],
            "stateMutability": "view",
            "type": "function"
        },
        {
            "inputs": [
                {
                    "internalType": "address",
                    "name": "spender",
                    "type": "address"
                },
                {
                    "internalType": "uint256",
                    "name": "amount",
                    "type": "uint256"
                }
            ],
            "name": "approve",
            "outputs": [
                {
                    "internalType": "bool",
                    "name": "",
                    "type": "bool"
                }
            ],
            "stateMutability": "nonpayable",
            "type": "function"
        },
        {
            "inputs": [
                {
                    "internalType": "address",
                    "name": "account",
                    "type": "address"
                }
            ],
            "name": "balanceOf",
            "outputs": [
                {
                    "internalType": "uint256",
                    "name": "",
                    "type": "uint256"
                }
            ],
            "stateMutability": "view",
            "type": "function"
        },
        {
            "inputs": [],
            "name": "decimals",
            "outputs": [
                {
                    "internalType": "uint8",
                    "name": "",
                    "type": "uint8"
                }
            ],
            "stateMutability": "view",
            "type": "function"
        },
        {
            "inputs": [
                {
                    "internalType": "address",
                    "name": "spender",
                    "type": "address"
                },
                {
                    "internalType": "uint256",
                    "name": "subtractedValue",
                    "type": "uint256"
                }
            ],
            "name": "decreaseAllowance",
            "outputs": [
                {
                    "internalType": "bool",
                    "name": "",
                    "type": "bool"
                }
            ],
            "stateMutability": "nonpayable",
            "type": "function"
        },
        {
            "inputs": [],
            "name": "eip712Domain",
            "outputs": [
                {
                    "internalType": "bytes1",
                    "name": "fields",
                    "type": "bytes1"
                },
                {
                    "internalType": "string",
                    "name": "name",
                    "type": "string"
                },
                {
                    "internalType": "string",
                    "name": "version",
                    "type": "string"
                },
                {
                    "internalType": "uint256",
                    "name": "chainId",
                    "type": "uint256"
                },
                {
                    "internalType": "address",
                    "name": "verifyingContract",
                    "type": "address"
                },
                {
                    "internalType": "bytes32",
                    "name": "salt",
                    "type": "bytes32"
                },
                {
                    "internalType": "uint256[]",
                    "name": "extensions",
                    "type": "uint256[]"
                }
            ],
            "stateMutability": "view",
            "type": "function"
        },
        {
            "inputs": [
                {
                    "internalType": "address",
                    "name": "spender",
                    "type": "address"
                },
                {
                    "internalType": "uint256",
                    "name": "addedValue",
                    "type": "uint256"
                }
            ],
            "name": "increaseAllowance",
            "outputs": [
                {
                    "internalType": "bool",
                    "name": "",
                    "type": "bool"
                }
            ],
            "stateMutability": "nonpayable",
            "type": "function"
        },
        {
            "inputs": [
                {
                    "internalType": "address",
                    "name": "to",
                    "type": "address"
                },
                {
                    "internalType": "uint256",
                    "name": "amount",
                    "type": "uint256"
                }
            ],
            "name": "mint",
            "outputs": [],
            "stateMutability": "nonpayable",
            "type": "function"
        },
        {
            "inputs": [],
            "name": "name",
            "outputs": [
                {
                    "internalType": "string",
                    "name": "",
                    "type": "string"
                }
            ],
            "stateMutability": "view",
            "type": "function"
        },
        {
            "inputs": [
                {
                    "internalType": "address",
                    "name": "owner",
                    "type": "address"
                }
            ],
            "name": "nonces",
            "outputs": [
                {
                    "internalType": "uint256",
                    "name": "",
                    "type": "uint256"
                }
            ],
            "stateMutability": "view",
            "type": "function"
        },
        {
            "inputs": [],
            "name": "owner",
            "outputs": [
                {
                    "internalType": "address",
                    "name": "",
                    "type": "address"
                }
            ],
            "stateMutability": "view",
            "type": "function"
        },
        {
            "inputs": [
                {
                    "internalType": "address",
                    "name": "owner",
                    "type": "address"
                },
                {
                    "internalType": "address",
                    "name": "spender",
                    "type": "address"
                },
                {
                    "internalType": "uint256",
                    "name": "value",
                    "type": "uint256"
                },
                {
                    "internalType": "uint256",
                    "name": "deadline",
                    "type": "uint256"
                },
                {
                    "internalType": "uint8",
                    "name": "v",
                    "type": "uint8"
                },
                {
                    "internalType": "bytes32",
                    "name": "r",
                    "type": "bytes32"
                },
                {
                    "internalType": "bytes32",
                    "name": "s",
                    "type": "bytes32"
                }
            ],
            "name": "permit",
            "outputs": [],
            "stateMutability": "nonpayable",
            "type": "function"
        },
        {
            "inputs": [
                {
                    "internalType": "address",
                    "name": "_address",
                    "type": "address"
                }
            ],
            "name": "removeFromWhitelist",
            "outputs": [],
            "stateMutability": "nonpayable",
            "type": "function"
        },
        {
            "inputs": [],
            "name": "renounceOwnership",
            "outputs": [],
            "stateMutability": "nonpayable",
            "type": "function"
        },
        {
            "inputs": [],
            "name": "symbol",
            "outputs": [
                {
                    "internalType": "string",
                    "name": "",
                    "type": "string"
                }
            ],
            "stateMutability": "view",
            "type": "function"
        },
        {
            "inputs": [],
            "name": "taxRate",
            "outputs": [
                {
                    "internalType": "uint256",
                    "name": "",
                    "type": "uint256"
                }
            ],
            "stateMutability": "view",
            "type": "function"
        },
        {
            "inputs": [],
            "name": "totalSupply",
            "outputs": [
                {
                    "internalType": "uint256",
                    "name": "",
                    "type": "uint256"
                }
            ],
            "stateMutability": "view",
            "type": "function"
        },
        {
            "inputs": [
                {
                    "internalType": "address",
                    "name": "to",
                    "type": "address"
                },
                {
                    "internalType": "uint256",
                    "name": "amount",
                    "type": "uint256"
                }
            ],
            "name": "transfer",
            "outputs": [
                {
                    "internalType": "bool",
                    "name": "",
                    "type": "bool"
                }
            ],
            "stateMutability": "nonpayable",
            "type": "function"
        },
        {
            "inputs": [
                {
                    "internalType": "address",
                    "name": "from",
                    "type": "address"
                },
                {
                    "internalType": "address",
                    "name": "to",
                    "type": "address"
                },
                {
                    "internalType": "uint256",
                    "name": "amount",
                    "type": "uint256"
                }
            ],
            "name": "transferFrom",
            "outputs": [
                {
                    "internalType": "bool",
                    "name": "",
                    "type": "bool"
                }
            ],
            "stateMutability": "nonpayable",
            "type": "function"
        },
        {
            "inputs": [
                {
                    "internalType": "address",
                    "name": "newOwner",
                    "type": "address"
                }
            ],
            "name": "transferOwnership",
            "outputs": [],
            "stateMutability": "nonpayable",
            "type": "function"
        },
        {
            "inputs": [
                {
                    "internalType": "uint256",
                    "name": "_tax",
                    "type": "uint256"
                }
            ],
            "name": "updateTax",
            "outputs": [],
            "stateMutability": "nonpayable",
            "type": "function"
        },
        {
            "inputs": [
                {
                    "internalType": "address",
                    "name": "",
                    "type": "address"
                }
            ],
            "name": "whitelist",
            "outputs": [
                {
                    "internalType": "bool",
                    "name": "",
                    "type": "bool"
                }
            ],
            "stateMutability": "view",
            "type": "function"
        }
    ],
    "bytecode": "0x6101606040526005600a553480156200001757600080fd5b506040518060400160405280601181526020017f426f6f7374205374616b6520546f6b656e000000000000000000000000000000815250806040518060400160405280600181526020017f31000000000000000000000000000000000000000000000000000000000000008152506040518060400160405280601181526020017f426f6f7374205374616b6520546f6b656e0000000000000000000000000000008152506040518060400160405280600381526020017f4253540000000000000000000000000000000000000000000000000000000000815250816003908162000102919062000983565b50806004908162000114919062000983565b505050620001376200012b6200023e60201b60201c565b6200024660201b60201c565b6200014d6006836200030c60201b90919060201c565b61012081815250506200016b6007826200030c60201b90919060201c565b6101408181525050818051906020012060e08181525050808051906020012061010081815250504660a08181525050620001aa6200036460201b60201c565b608081815250503073ffffffffffffffffffffffffffffffffffffffff1660c08173ffffffffffffffffffffffffffffffffffffffff1681525050505050620001f933620003c160201b60201c565b62000238336200020e6200045760201b60201c565b600a6200021c919062000bfa565b629896806200022c919062000c4b565b6200046060201b60201c565b6200108d565b600033905090565b6000600560009054906101000a900473ffffffffffffffffffffffffffffffffffffffff16905081600560006101000a81548173ffffffffffffffffffffffffffffffffffffffff021916908373ffffffffffffffffffffffffffffffffffffffff1602179055508173ffffffffffffffffffffffffffffffffffffffff168173ffffffffffffffffffffffffffffffffffffffff167f8be0079c531659141344cd1fd0a4f28419497f9722a3daafe3b4186f6b6457e060405160405180910390a35050565b600060208351101562000332576200032a83620005cd60201b60201c565b90506200035e565b8262000344836200063a60201b60201c565b600001908162000355919062000983565b5060ff60001b90505b92915050565b60007f8b73c3c69bb8fe3d512ecc4cf759cc79239f7b179b0ffacaa9a75d522b39400f60e051610100514630604051602001620003a695949392919062000d07565b60405160208183030381529060405280519060200120905090565b620003d16200064460201b60201c565b600073ffffffffffffffffffffffffffffffffffffffff168173ffffffffffffffffffffffffffffffffffffffff160362000443576040517f08c379a00000000000000000000000000000000000000000000000000000000081526004016200043a9062000deb565b60405180910390fd5b62000454816200024660201b60201c565b50565b60006012905090565b600073ffffffffffffffffffffffffffffffffffffffff168273ffffffffffffffffffffffffffffffffffffffff1603620004d2576040517f08c379a0000000000000000000000000000000000000000000000000000000008152600401620004c99062000e5d565b60405180910390fd5b620004e660008383620006d560201b60201c565b8060026000828254620004fa919062000e7f565b92505081905550806000808473ffffffffffffffffffffffffffffffffffffffff1673ffffffffffffffffffffffffffffffffffffffff168152602001908152602001600020600082825401925050819055508173ffffffffffffffffffffffffffffffffffffffff16600073ffffffffffffffffffffffffffffffffffffffff167fddf252ad1be2c89b69c2b068fc378daa952ba7f163c4a11628f55a4df523b3ef83604051620005ad919062000eba565b60405180910390a3620005c960008383620006da60201b60201c565b5050565b600080829050601f815111156200061d57826040517f305a27a900000000000000000000000000000000000000000000000000000000815260040162000614919062000f55565b60405180910390fd5b8051816200062b9062000fab565b60001c1760001b915050919050565b6000819050919050565b620006546200023e60201b60201c565b73ffffffffffffffffffffffffffffffffffffffff166200067a620006df60201b60201c565b73ffffffffffffffffffffffffffffffffffffffff1614620006d3576040517f08c379a0000000000000000000000000000000000000000000000000000000008152600401620006ca906200106b565b60405180910390fd5b565b505050565b505050565b6000600560009054906101000a900473ffffffffffffffffffffffffffffffffffffffff16905090565b600081519050919050565b7f4e487b7100000000000000000000000000000000000000000000000000000000600052604160045260246000fd5b7f4e487b7100000000000000000000000000000000000000000000000000000000600052602260045260246000fd5b600060028204905060018216806200078b57607f821691505b602082108103620007a157620007a062000743565b5b50919050565b60008190508160005260206000209050919050565b60006020601f8301049050919050565b600082821b905092915050565b6000600883026200080b7fffffffffffffffffffffffffffffffffffffffffffffffffffffffffffffffff82620007cc565b620008178683620007cc565b95508019841693508086168417925050509392505050565b6000819050919050565b6000819050919050565b6000620008646200085e62000858846200082f565b62000839565b6200082f565b9050919050565b6000819050919050565b620008808362000843565b620008986200088f826200086b565b848454620007d9565b825550505050565b600090565b620008af620008a0565b620008bc81848462000875565b505050565b5b81811015620008e457620008d8600082620008a5565b600181019050620008c2565b5050565b601f8211156200093357620008fd81620007a7565b6200090884620007bc565b8101602085101562000918578190505b620009306200092785620007bc565b830182620008c1565b50505b505050565b600082821c905092915050565b6000620009586000198460080262000938565b1980831691505092915050565b600062000973838362000945565b9150826002028217905092915050565b6200098e8262000709565b67ffffffffffffffff811115620009aa57620009a962000714565b5b620009b6825462000772565b620009c3828285620008e8565b600060209050601f831160018114620009fb5760008415620009e6578287015190505b620009f2858262000965565b86555062000a62565b601f19841662000a0b86620007a7565b60005b8281101562000a355784890151825560018201915060208501945060208101905062000a0e565b8683101562000a55578489015162000a51601f89168262000945565b8355505b6001600288020188555050505b505050505050565b7f4e487b7100000000000000000000000000000000000000000000000000000000600052601160045260246000fd5b60008160011c9050919050565b6000808291508390505b600185111562000af85780860481111562000ad05762000acf62000a6a565b5b600185161562000ae05780820291505b808102905062000af08562000a99565b945062000ab0565b94509492505050565b60008262000b13576001905062000be6565b8162000b23576000905062000be6565b816001811462000b3c576002811462000b475762000b7d565b600191505062000be6565b60ff84111562000b5c5762000b5b62000a6a565b5b8360020a91508482111562000b765762000b7562000a6a565b5b5062000be6565b5060208310610133831016604e8410600b841016171562000bb75782820a90508381111562000bb15762000bb062000a6a565b5b62000be6565b62000bc6848484600162000aa6565b9250905081840481111562000be05762000bdf62000a6a565b5b81810290505b9392505050565b600060ff82169050919050565b600062000c07826200082f565b915062000c148362000bed565b925062000c437fffffffffffffffffffffffffffffffffffffffffffffffffffffffffffffffff848462000b01565b905092915050565b600062000c58826200082f565b915062000c65836200082f565b925082820262000c75816200082f565b9150828204841483151762000c8f5762000c8e62000a6a565b5b5092915050565b6000819050919050565b62000cab8162000c96565b82525050565b62000cbc816200082f565b82525050565b600073ffffffffffffffffffffffffffffffffffffffff82169050919050565b600062000cef8262000cc2565b9050919050565b62000d018162000ce2565b82525050565b600060a08201905062000d1e600083018862000ca0565b62000d2d602083018762000ca0565b62000d3c604083018662000ca0565b62000d4b606083018562000cb1565b62000d5a608083018462000cf6565b9695505050505050565b600082825260208201905092915050565b7f4f776e61626c653a206e6577206f776e657220697320746865207a65726f206160008201527f6464726573730000000000000000000000000000000000000000000000000000602082015250565b600062000dd360268362000d64565b915062000de08262000d75565b604082019050919050565b6000602082019050818103600083015262000e068162000dc4565b9050919050565b7f45524332303a206d696e7420746f20746865207a65726f206164647265737300600082015250565b600062000e45601f8362000d64565b915062000e528262000e0d565b602082019050919050565b6000602082019050818103600083015262000e788162000e36565b9050919050565b600062000e8c826200082f565b915062000e99836200082f565b925082820190508082111562000eb45762000eb362000a6a565b5b92915050565b600060208201905062000ed1600083018462000cb1565b92915050565b60005b8381101562000ef757808201518184015260208101905062000eda565b60008484015250505050565b6000601f19601f8301169050919050565b600062000f218262000709565b62000f2d818562000d64565b935062000f3f81856020860162000ed7565b62000f4a8162000f03565b840191505092915050565b6000602082019050818103600083015262000f71818462000f14565b905092915050565b600081519050919050565b6000819050602082019050919050565b600062000fa2825162000c96565b80915050919050565b600062000fb88262000f79565b8262000fc48462000f84565b905062000fd18162000f94565b9250602082101562001014576200100f7fffffffffffffffffffffffffffffffffffffffffffffffffffffffffffffffff83602003600802620007cc565b831692505b5050919050565b7f4f776e61626c653a2063616c6c6572206973206e6f7420746865206f776e6572600082015250565b60006200105360208362000d64565b915062001060826200101b565b602082019050919050565b60006020820190508181036000830152620010868162001044565b9050919050565b60805160a05160c05160e051610100516101205161014051612b1a620010e86000396000610701015260006106cd015260006116cf015260006116ae01526000610f6501526000610fbb01526000610fe40152612b1a6000f3fe608060405234801561001057600080fd5b50600436106101585760003560e01c806384b0196e116100c3578063a9059cbb1161007c578063a9059cbb146103e5578063cca0feb614610415578063d505accf14610431578063dd62ed3e1461044d578063e43252d71461047d578063f2fde38b1461049957610158565b806384b0196e146103095780638ab1d6811461032d5780638da5cb5b1461034957806395d89b41146103675780639b19251a14610385578063a457c2d7146103b557610158565b80633950935111610115578063395093511461023557806340c10f191461026557806370a0823114610281578063715018a6146102b1578063771a3a1d146102bb5780637ecebe00146102d957610158565b806306fdde031461015d578063095ea7b31461017b57806318160ddd146101ab57806323b872dd146101c9578063313ce567146101f95780633644e51514610217575b600080fd5b6101656104b5565b6040516101729190611b1c565b60405180910390f35b61019560048036038101906101909190611bd7565b610547565b6040516101a29190611c32565b60405180910390f35b6101b361056a565b6040516101c09190611c5c565b60405180910390f35b6101e360048036038101906101de9190611c77565b610574565b6040516101f09190611c32565b60405180910390f35b6102016105a3565b60405161020e9190611ce6565b60405180910390f35b61021f6105ac565b60405161022c9190611d1a565b60405180910390f35b61024f600480360381019061024a9190611bd7565b6105bb565b60405161025c9190611c32565b60405180910390f35b61027f600480360381019061027a9190611bd7565b6105f2565b005b61029b60048036038101906102969190611d35565b610608565b6040516102a89190611c5c565b60405180910390f35b6102b9610650565b005b6102c3610664565b6040516102d09190611c5c565b60405180910390f35b6102f360048036038101906102ee9190611d35565b61066a565b6040516103009190611c5c565b60405180910390f35b6103116106ba565b6040516103249796959493929190611e6a565b60405180910390f35b61034760048036038101906103429190611d35565b6107bc565b005b61035161081f565b60405161035e9190611eee565b60405180910390f35b61036f610849565b60405161037c9190611b1c565b60405180910390f35b61039f600480360381019061039a9190611d35565b6108db565b6040516103ac9190611c32565b60405180910390f35b6103cf60048036038101906103ca9190611bd7565b6108fb565b6040516103dc9190611c32565b60405180910390f35b6103ff60048036038101906103fa9190611bd7565b610972565b60405161040c9190611c32565b60405180910390f35b61042f600480360381019061042a9190611f09565b610995565b005b61044b60048036038101906104469190611f8e565b6109a7565b005b61046760048036038101906104629190612030565b610ae9565b6040516104749190611c5c565b60405180910390f35b61049760048036038101906104929190611d35565b610b70565b005b6104b360048036038101906104ae9190611d35565b610bd3565b005b6060600380546104c49061209f565b80601f01602080910402602001604051908101604052809291908181526020018280546104f09061209f565b801561053d5780601f106105125761010080835404028352916020019161053d565b820191906000526020600020905b81548152906001019060200180831161052057829003601f168201915b5050505050905090565b600080610552610c56565b905061055f818585610c5e565b600191505092915050565b6000600254905090565b60008061057f610c56565b905061058c858285610e27565b610597858585610eb3565b60019150509392505050565b60006012905090565b60006105b6610f61565b905090565b6000806105c6610c56565b90506105e78185856105d88589610ae9565b6105e291906120ff565b610c5e565b600191505092915050565b6105fa611018565b6106048282611096565b5050565b60008060008373ffffffffffffffffffffffffffffffffffffffff1673ffffffffffffffffffffffffffffffffffffffff168152602001908152602001600020549050919050565b610658611018565b61066260006111ec565b565b600a5481565b60006106b3600860008473ffffffffffffffffffffffffffffffffffffffff1673ffffffffffffffffffffffffffffffffffffffff1681526020019081526020016000206112b2565b9050919050565b6000606080600080600060606106fa60067f00000000000000000000000000000000000000000000000000000000000000006112c090919063ffffffff16565b61072e60077f00000000000000000000000000000000000000000000000000000000000000006112c090919063ffffffff16565b46306000801b600067ffffffffffffffff81111561074f5761074e612133565b5b60405190808252806020026020018201604052801561077d5781602001602082028036833780820191505090505b507f0f00000000000000000000000000000000000000000000000000000000000000959493929190965096509650965096509650965090919293949596565b6107c4611018565b6000600b60008373ffffffffffffffffffffffffffffffffffffffff1673ffffffffffffffffffffffffffffffffffffffff16815260200190815260200160002060006101000a81548160ff02191690831515021790555050565b6000600560009054906101000a900473ffffffffffffffffffffffffffffffffffffffff16905090565b6060600480546108589061209f565b80601f01602080910402602001604051908101604052809291908181526020018280546108849061209f565b80156108d15780601f106108a6576101008083540402835291602001916108d1565b820191906000526020600020905b8154815290600101906020018083116108b457829003601f168201915b5050505050905090565b600b6020528060005260406000206000915054906101000a900460ff1681565b600080610906610c56565b905060006109148286610ae9565b905083811015610959576040517f08c379a0000000000000000000000000000000000000000000000000000000008152600401610950906121d4565b60405180910390fd5b6109668286868403610c5e565b60019250505092915050565b60008061097d610c56565b905061098a818585610eb3565b600191505092915050565b61099d611018565b80600a8190555050565b834211156109ea576040517f08c379a00000000000000000000000000000000000000000000000000000000081526004016109e190612240565b60405180910390fd5b60007f6e71edae12b1b97f4d1f60370fef10105fa2faae0126114a169c64845d6126c9888888610a198c611370565b89604051602001610a2f96959493929190612260565b6040516020818303038152906040528051906020012090506000610a52826113ce565b90506000610a62828787876113e8565b90508973ffffffffffffffffffffffffffffffffffffffff168173ffffffffffffffffffffffffffffffffffffffff1614610ad2576040517f08c379a0000000000000000000000000000000000000000000000000000000008152600401610ac99061230d565b60405180910390fd5b610add8a8a8a610c5e565b50505050505050505050565b6000600160008473ffffffffffffffffffffffffffffffffffffffff1673ffffffffffffffffffffffffffffffffffffffff16815260200190815260200160002060008373ffffffffffffffffffffffffffffffffffffffff1673ffffffffffffffffffffffffffffffffffffffff16815260200190815260200160002054905092915050565b610b78611018565b6001600b60008373ffffffffffffffffffffffffffffffffffffffff1673ffffffffffffffffffffffffffffffffffffffff16815260200190815260200160002060006101000a81548160ff02191690831515021790555050565b610bdb611018565b600073ffffffffffffffffffffffffffffffffffffffff168173ffffffffffffffffffffffffffffffffffffffff1603610c4a576040517f08c379a0000000000000000000000000000000000000000000000000000000008152600401610c419061239f565b60405180910390fd5b610c53816111ec565b50565b600033905090565b600073ffffffffffffffffffffffffffffffffffffffff168373ffffffffffffffffffffffffffffffffffffffff1603610ccd576040517f08c379a0000000000000000000000000000000000000000000000000000000008152600401610cc490612431565b60405180910390fd5b600073ffffffffffffffffffffffffffffffffffffffff168273ffffffffffffffffffffffffffffffffffffffff1603610d3c576040517f08c379a0000000000000000000000000000000000000000000000000000000008152600401610d33906124c3565b60405180910390fd5b80600160008573ffffffffffffffffffffffffffffffffffffffff1673ffffffffffffffffffffffffffffffffffffffff16815260200190815260200160002060008473ffffffffffffffffffffffffffffffffffffffff1673ffffffffffffffffffffffffffffffffffffffff168152602001908152602001600020819055508173ffffffffffffffffffffffffffffffffffffffff168373ffffffffffffffffffffffffffffffffffffffff167f8c5be1e5ebec7d5bd14f71427d1e84f3dd0314c0f7b2291e5b200ac8c7c3b92583604051610e1a9190611c5c565b60405180910390a3505050565b6000610e338484610ae9565b90507fffffffffffffffffffffffffffffffffffffffffffffffffffffffffffffffff8114610ead5781811015610e9f576040517f08c379a0000000000000000000000000000000000000000000000000000000008152600401610e969061252f565b60405180910390fd5b610eac8484848403610c5e565b5b50505050565b600b60008473ffffffffffffffffffffffffffffffffffffffff1673ffffffffffffffffffffffffffffffffffffffff16815260200190815260200160002060009054906101000a900460ff16610f505760006064600a5483610f16919061254f565b610f2091906125c0565b9050610f3884848385610f3391906125f1565b611413565b610f4a84610f4461081f565b83611413565b50610f5c565b610f5b838383611413565b5b505050565b60007f000000000000000000000000000000000000000000000000000000000000000073ffffffffffffffffffffffffffffffffffffffff163073ffffffffffffffffffffffffffffffffffffffff16148015610fdd57507f000000000000000000000000000000000000000000000000000000000000000046145b1561100a577f00000000000000000000000000000000000000000000000000000000000000009050611015565b611012611689565b90505b90565b611020610c56565b73ffffffffffffffffffffffffffffffffffffffff1661103e61081f565b73ffffffffffffffffffffffffffffffffffffffff1614611094576040517f08c379a000000000000000000000000000000000000000000000000000000000815260040161108b90612671565b60405180910390fd5b565b600073ffffffffffffffffffffffffffffffffffffffff168273ffffffffffffffffffffffffffffffffffffffff1603611105576040517f08c379a00000000000000000000000000000000000000000000000000000000081526004016110fc906126dd565b60405180910390fd5b6111116000838361171f565b806002600082825461112391906120ff565b92505081905550806000808473ffffffffffffffffffffffffffffffffffffffff1673ffffffffffffffffffffffffffffffffffffffff168152602001908152602001600020600082825401925050819055508173ffffffffffffffffffffffffffffffffffffffff16600073ffffffffffffffffffffffffffffffffffffffff167fddf252ad1be2c89b69c2b068fc378daa952ba7f163c4a11628f55a4df523b3ef836040516111d49190611c5c565b60405180910390a36111e860008383611724565b5050565b6000600560009054906101000a900473ffffffffffffffffffffffffffffffffffffffff16905081600560006101000a81548173ffffffffffffffffffffffffffffffffffffffff021916908373ffffffffffffffffffffffffffffffffffffffff1602179055508173ffffffffffffffffffffffffffffffffffffffff168173ffffffffffffffffffffffffffffffffffffffff167f8be0079c531659141344cd1fd0a4f28419497f9722a3daafe3b4186f6b6457e060405160405180910390a35050565b600081600001549050919050565b606060ff60001b83146112dd576112d683611729565b905061136a565b8180546112e99061209f565b80601f01602080910402602001604051908101604052809291908181526020018280546113159061209f565b80156113625780601f1061133757610100808354040283529160200191611362565b820191906000526020600020905b81548152906001019060200180831161134557829003601f168201915b505050505090505b92915050565b600080600860008473ffffffffffffffffffffffffffffffffffffffff1673ffffffffffffffffffffffffffffffffffffffff16815260200190815260200160002090506113bd816112b2565b91506113c88161179d565b50919050565b60006113e16113db610f61565b836117b3565b9050919050565b60008060006113f9878787876117f4565b91509150611406816118d6565b8192505050949350505050565b600073ffffffffffffffffffffffffffffffffffffffff168373ffffffffffffffffffffffffffffffffffffffff1603611482576040517f08c379a00000000000000000000000000000000000000000000000000000000081526004016114799061276f565b60405180910390fd5b600073ffffffffffffffffffffffffffffffffffffffff168273ffffffffffffffffffffffffffffffffffffffff16036114f1576040517f08c379a00000000000000000000000000000000000000000000000000000000081526004016114e890612801565b60405180910390fd5b6114fc83838361171f565b60008060008573ffffffffffffffffffffffffffffffffffffffff1673ffffffffffffffffffffffffffffffffffffffff16815260200190815260200160002054905081811015611582576040517f08c379a000000000000000000000000000000000000000000000000000000000815260040161157990612893565b60405180910390fd5b8181036000808673ffffffffffffffffffffffffffffffffffffffff1673ffffffffffffffffffffffffffffffffffffffff16815260200190815260200160002081905550816000808573ffffffffffffffffffffffffffffffffffffffff1673ffffffffffffffffffffffffffffffffffffffff168152602001908152602001600020600082825401925050819055508273ffffffffffffffffffffffffffffffffffffffff168473ffffffffffffffffffffffffffffffffffffffff167fddf252ad1be2c89b69c2b068fc378daa952ba7f163c4a11628f55a4df523b3ef846040516116709190611c5c565b60405180910390a3611683848484611724565b50505050565b60007f8b73c3c69bb8fe3d512ecc4cf759cc79239f7b179b0ffacaa9a75d522b39400f7f00000000000000000000000000000000000000000000000000000000000000007f000000000000000000000000000000000000000000000000000000000000000046306040516020016117049594939291906128b3565b60405160208183030381529060405280519060200120905090565b505050565b505050565b6060600061173683611a3c565b90506000602067ffffffffffffffff81111561175557611754612133565b5b6040519080825280601f01601f1916602001820160405280156117875781602001600182028036833780820191505090505b5090508181528360208201528092505050919050565b6001816000016000828254019250508190555050565b60006040517f190100000000000000000000000000000000000000000000000000000000000081528360028201528260228201526042812091505092915050565b6000807f7fffffffffffffffffffffffffffffff5d576e7357a4501ddfe92f46681b20a08360001c111561182f5760006003915091506118cd565b6000600187878787604051600081526020016040526040516118549493929190612906565b6020604051602081039080840390855afa158015611876573d6000803e3d6000fd5b505050602060405103519050600073ffffffffffffffffffffffffffffffffffffffff168173ffffffffffffffffffffffffffffffffffffffff16036118c4576000600192509250506118cd565b80600092509250505b94509492505050565b600060048111156118ea576118e961294b565b5b8160048111156118fd576118fc61294b565b5b0315611a3957600160048111156119175761191661294b565b5b81600481111561192a5761192961294b565b5b0361196a576040517f08c379a0000000000000000000000000000000000000000000000000000000008152600401611961906129c6565b60405180910390fd5b6002600481111561197e5761197d61294b565b5b8160048111156119915761199061294b565b5b036119d1576040517f08c379a00000000000000000000000000000000000000000000000000000000081526004016119c890612a32565b60405180910390fd5b600360048111156119e5576119e461294b565b5b8160048111156119f8576119f761294b565b5b03611a38576040517f08c379a0000000000000000000000000000000000000000000000000000000008152600401611a2f90612ac4565b60405180910390fd5b5b50565b60008060ff8360001c169050601f811115611a83576040517fb3512b0c00000000000000000000000000000000000000000000000000000000815260040160405180910390fd5b80915050919050565b600081519050919050565b600082825260208201905092915050565b60005b83811015611ac6578082015181840152602081019050611aab565b60008484015250505050565b6000601f19601f8301169050919050565b6000611aee82611a8c565b611af88185611a97565b9350611b08818560208601611aa8565b611b1181611ad2565b840191505092915050565b60006020820190508181036000830152611b368184611ae3565b905092915050565b600080fd5b600073ffffffffffffffffffffffffffffffffffffffff82169050919050565b6000611b6e82611b43565b9050919050565b611b7e81611b63565b8114611b8957600080fd5b50565b600081359050611b9b81611b75565b92915050565b6000819050919050565b611bb481611ba1565b8114611bbf57600080fd5b50565b600081359050611bd181611bab565b92915050565b60008060408385031215611bee57611bed611b3e565b5b6000611bfc85828601611b8c565b9250506020611c0d85828601611bc2565b9150509250929050565b60008115159050919050565b611c2c81611c17565b82525050565b6000602082019050611c476000830184611c23565b92915050565b611c5681611ba1565b82525050565b6000602082019050611c716000830184611c4d565b92915050565b600080600060608486031215611c9057611c8f611b3e565b5b6000611c9e86828701611b8c565b9350506020611caf86828701611b8c565b9250506040611cc086828701611bc2565b9150509250925092565b600060ff82169050919050565b611ce081611cca565b82525050565b6000602082019050611cfb6000830184611cd7565b92915050565b6000819050919050565b611d1481611d01565b82525050565b6000602082019050611d2f6000830184611d0b565b92915050565b600060208284031215611d4b57611d4a611b3e565b5b6000611d5984828501611b8c565b91505092915050565b60007fff0000000000000000000000000000000000000000000000000000000000000082169050919050565b611d9781611d62565b82525050565b611da681611b63565b82525050565b600081519050919050565b600082825260208201905092915050565b6000819050602082019050919050565b611de181611ba1565b82525050565b6000611df38383611dd8565b60208301905092915050565b6000602082019050919050565b6000611e1782611dac565b611e218185611db7565b9350611e2c83611dc8565b8060005b83811015611e5d578151611e448882611de7565b9750611e4f83611dff565b925050600181019050611e30565b5085935050505092915050565b600060e082019050611e7f600083018a611d8e565b8181036020830152611e918189611ae3565b90508181036040830152611ea58188611ae3565b9050611eb46060830187611c4d565b611ec16080830186611d9d565b611ece60a0830185611d0b565b81810360c0830152611ee08184611e0c565b905098975050505050505050565b6000602082019050611f036000830184611d9d565b92915050565b600060208284031215611f1f57611f1e611b3e565b5b6000611f2d84828501611bc2565b91505092915050565b611f3f81611cca565b8114611f4a57600080fd5b50565b600081359050611f5c81611f36565b92915050565b611f6b81611d01565b8114611f7657600080fd5b50565b600081359050611f8881611f62565b92915050565b600080600080600080600060e0888a031215611fad57611fac611b3e565b5b6000611fbb8a828b01611b8c565b9750506020611fcc8a828b01611b8c565b9650506040611fdd8a828b01611bc2565b9550506060611fee8a828b01611bc2565b9450506080611fff8a828b01611f4d565b93505060a06120108a828b01611f79565b92505060c06120218a828b01611f79565b91505092959891949750929550565b6000806040838503121561204757612046611b3e565b5b600061205585828601611b8c565b925050602061206685828601611b8c565b9150509250929050565b7f4e487b7100000000000000000000000000000000000000000000000000000000600052602260045260246000fd5b600060028204905060018216806120b757607f821691505b6020821081036120ca576120c9612070565b5b50919050565b7f4e487b7100000000000000000000000000000000000000000000000000000000600052601160045260246000fd5b600061210a82611ba1565b915061211583611ba1565b925082820190508082111561212d5761212c6120d0565b5b92915050565b7f4e487b7100000000000000000000000000000000000000000000000000000000600052604160045260246000fd5b7f45524332303a2064656372656173656420616c6c6f77616e63652062656c6f7760008201527f207a65726f000000000000000000000000000000000000000000000000000000602082015250565b60006121be602583611a97565b91506121c982612162565b604082019050919050565b600060208201905081810360008301526121ed816121b1565b9050919050565b7f45524332305065726d69743a206578706972656420646561646c696e65000000600082015250565b600061222a601d83611a97565b9150612235826121f4565b602082019050919050565b600060208201905081810360008301526122598161221d565b9050919050565b600060c0820190506122756000830189611d0b565b6122826020830188611d9d565b61228f6040830187611d9d565b61229c6060830186611c4d565b6122a96080830185611c4d565b6122b660a0830184611c4d565b979650505050505050565b7f45524332305065726d69743a20696e76616c6964207369676e61747572650000600082015250565b60006122f7601e83611a97565b9150612302826122c1565b602082019050919050565b60006020820190508181036000830152612326816122ea565b9050919050565b7f4f776e61626c653a206e6577206f776e657220697320746865207a65726f206160008201527f6464726573730000000000000000000000000000000000000000000000000000602082015250565b6000612389602683611a97565b91506123948261232d565b604082019050919050565b600060208201905081810360008301526123b88161237c565b9050919050565b7f45524332303a20617070726f76652066726f6d20746865207a65726f2061646460008201527f7265737300000000000000000000000000000000000000000000000000000000602082015250565b600061241b602483611a97565b9150612426826123bf565b604082019050919050565b6000602082019050818103600083015261244a8161240e565b9050919050565b7f45524332303a20617070726f766520746f20746865207a65726f20616464726560008201527f7373000000000000000000000000000000000000000000000000000000000000602082015250565b60006124ad602283611a97565b91506124b882612451565b604082019050919050565b600060208201905081810360008301526124dc816124a0565b9050919050565b7f45524332303a20696e73756666696369656e7420616c6c6f77616e6365000000600082015250565b6000612519601d83611a97565b9150612524826124e3565b602082019050919050565b600060208201905081810360008301526125488161250c565b9050919050565b600061255a82611ba1565b915061256583611ba1565b925082820261257381611ba1565b9150828204841483151761258a576125896120d0565b5b5092915050565b7f4e487b7100000000000000000000000000000000000000000000000000000000600052601260045260246000fd5b60006125cb82611ba1565b91506125d683611ba1565b9250826125e6576125e5612591565b5b828204905092915050565b60006125fc82611ba1565b915061260783611ba1565b925082820390508181111561261f5761261e6120d0565b5b92915050565b7f4f776e61626c653a2063616c6c6572206973206e6f7420746865206f776e6572600082015250565b600061265b602083611a97565b915061266682612625565b602082019050919050565b6000602082019050818103600083015261268a8161264e565b9050919050565b7f45524332303a206d696e7420746f20746865207a65726f206164647265737300600082015250565b60006126c7601f83611a97565b91506126d282612691565b602082019050919050565b600060208201905081810360008301526126f6816126ba565b9050919050565b7f45524332303a207472616e736665722066726f6d20746865207a65726f20616460008201527f6472657373000000000000000000000000000000000000000000000000000000602082015250565b6000612759602583611a97565b9150612764826126fd565b604082019050919050565b600060208201905081810360008301526127888161274c565b9050919050565b7f45524332303a207472616e7366657220746f20746865207a65726f206164647260008201527f6573730000000000000000000000000000000000000000000000000000000000602082015250565b60006127eb602383611a97565b91506127f68261278f565b604082019050919050565b6000602082019050818103600083015261281a816127de565b9050919050565b7f45524332303a207472616e7366657220616d6f756e742065786365656473206260008201527f616c616e63650000000000000000000000000000000000000000000000000000602082015250565b600061287d602683611a97565b915061288882612821565b604082019050919050565b600060208201905081810360008301526128ac81612870565b9050919050565b600060a0820190506128c86000830188611d0b565b6128d56020830187611d0b565b6128e26040830186611d0b565b6128ef6060830185611c4d565b6128fc6080830184611d9d565b9695505050505050565b600060808201905061291b6000830187611d0b565b6129286020830186611cd7565b6129356040830185611d0b565b6129426060830184611d0b565b95945050505050565b7f4e487b7100000000000000000000000000000000000000000000000000000000600052602160045260246000fd5b7f45434453413a20696e76616c6964207369676e61747572650000000000000000600082015250565b60006129b0601883611a97565b91506129bb8261297a565b602082019050919050565b600060208201905081810360008301526129df816129a3565b9050919050565b7f45434453413a20696e76616c6964207369676e6174757265206c656e67746800600082015250565b6000612a1c601f83611a97565b9150612a27826129e6565b602082019050919050565b60006020820190508181036000830152612a4b81612a0f565b9050919050565b7f45434453413a20696e76616c6964207369676e6174757265202773272076616c60008201527f7565000000000000000000000000000000000000000000000000000000000000602082015250565b6000612aae602283611a97565b9150612ab982612a52565b604082019050919050565b60006020820190508181036000830152612add81612aa1565b905091905056fea26469706673582212201f42c3a72177966c02306766717d4a4ee5707bb016426b4d4add2244738640f564736f6c63430008130033",
    "linkReferences": {},
    "deployedLinkReferences": {}
}